{
  "contractName": "SubmarineAuctions",
  "abi": [
    {
      "inputs": [],
      "payable": false,
      "stateMutability": "nonpayable",
      "type": "constructor"
    },
    {
      "constant": true,
      "inputs": [],
      "name": "lastId",
      "outputs": [
        {
          "internalType": "uint256",
          "name": "",
          "type": "uint256"
        }
      ],
      "payable": false,
      "stateMutability": "view",
      "type": "function"
    },
    {
      "constant": true,
      "inputs": [],
      "name": "name",
      "outputs": [
        {
          "internalType": "string",
          "name": "",
          "type": "string"
        }
      ],
      "payable": false,
      "stateMutability": "view",
      "type": "function"
    },
    {
      "constant": true,
      "inputs": [],
      "name": "owner",
      "outputs": [
        {
          "internalType": "address",
          "name": "",
          "type": "address"
        }
      ],
      "payable": false,
      "stateMutability": "view",
      "type": "function"
    },
    {
      "constant": false,
      "inputs": [
        {
          "internalType": "uint256",
          "name": "_minBid",
          "type": "uint256"
        }
      ],
      "name": "createAuction",
      "outputs": [],
      "payable": true,
      "stateMutability": "payable",
      "type": "function"
    },
    {
      "constant": false,
      "inputs": [
        {
          "internalType": "uint256",
          "name": "_auctionID",
          "type": "uint256"
        }
      ],
      "name": "submitBid",
      "outputs": [],
      "payable": true,
      "stateMutability": "payable",
      "type": "function"
    },
    {
      "constant": false,
      "inputs": [
        {
          "internalType": "uint256",
          "name": "_auctionID",
          "type": "uint256"
        }
      ],
      "name": "resolveAuction",
      "outputs": [],
      "payable": false,
      "stateMutability": "nonpayable",
      "type": "function"
    }
  ],
  "bytecode": "0x60806040526040518060400160405280601281526020017f7375626d6172696e655f61756374696f6e7300000000000000000000000000008152506001908051906020019061004f9291906100a7565b50600160025534801561006157600080fd5b50336000806101000a81548173ffffffffffffffffffffffffffffffffffffffff021916908373ffffffffffffffffffffffffffffffffffffffff16021790555061014c565b828054600181600116156101000203166002900490600052602060002090601f016020900481019282601f106100e857805160ff1916838001178555610116565b82800160010185558215610116579182015b828111156101155782518255916020019190600101906100fa565b5b5090506101239190610127565b5090565b61014991905b8082111561014557600081600090555060010161012d565b5090565b90565b6107c08061015b6000396000f3fe6080604052600436106100555760003560e01c806306fdde031461005a578063199de1e2146100ea57806374bdda15146101255780638da5cb5b14610153578063c1292cc3146101aa578063d5563f31146101d5575b600080fd5b34801561006657600080fd5b5061006f610203565b6040518080602001828103825283818151815260200191508051906020019080838360005b838110156100af578082015181840152602081019050610094565b50505050905090810190601f1680156100dc5780820380516001836020036101000a031916815260200191505b509250505060405180910390f35b3480156100f657600080fd5b506101236004803603602081101561010d57600080fd5b81019080803590602001909291905050506102a1565b005b6101516004803603602081101561013b57600080fd5b81019080803590602001909291905050506105f3565b005b34801561015f57600080fd5b506101686106cd565b604051808273ffffffffffffffffffffffffffffffffffffffff1673ffffffffffffffffffffffffffffffffffffffff16815260200191505060405180910390f35b3480156101b657600080fd5b506101bf6106f2565b6040518082815260200191505060405180910390f35b610201600480360360208110156101eb57600080fd5b81019080803590602001909291905050506106f8565b005b60018054600181600116156101000203166002900480601f0160208091040260200160405190810160405280929190818152602001828054600181600116156101000203166002900480156102995780601f1061026e57610100808354040283529160200191610299565b820191906000526020600020905b81548152906001019060200180831161027c57829003601f168201915b505050505081565b60006003600083815260200190815260200160002090506000809050600080600090505b83600301805490508110156103e457828460040160008660030184815481106102ea57fe5b9060005260206000200160009054906101000a900473ffffffffffffffffffffffffffffffffffffffff1673ffffffffffffffffffffffffffffffffffffffff1673ffffffffffffffffffffffffffffffffffffffff1681526020019081526020016000205411156103d75783600401600085600301838154811061036b57fe5b9060005260206000200160009054906101000a900473ffffffffffffffffffffffffffffffffffffffff1673ffffffffffffffffffffffffffffffffffffffff1673ffffffffffffffffffffffffffffffffffffffff1681526020019081526020016000205492508091505b80806001019150506102c5565b508260010160009054906101000a900473ffffffffffffffffffffffffffffffffffffffff1673ffffffffffffffffffffffffffffffffffffffff166108fc839081150290604051600060405180830381858888f1935050505015801561044f573d6000803e3d6000fd5b50600083600401600085600301848154811061046757fe5b9060005260206000200160009054906101000a900473ffffffffffffffffffffffffffffffffffffffff1673ffffffffffffffffffffffffffffffffffffffff1673ffffffffffffffffffffffffffffffffffffffff1681526020019081526020016000208190555060008090505b83600301805490508110156105ec578360030181815481106104f457fe5b9060005260206000200160009054906101000a900473ffffffffffffffffffffffffffffffffffffffff1673ffffffffffffffffffffffffffffffffffffffff166108fc85600401600087600301858154811061054d57fe5b9060005260206000200160009054906101000a900473ffffffffffffffffffffffffffffffffffffffff1673ffffffffffffffffffffffffffffffffffffffff1673ffffffffffffffffffffffffffffffffffffffff168152602001908152602001600020549081150290604051600060405180830381858888f193505050501580156105de573d6000803e3d6000fd5b5080806001019150506104d6565b5050505050565b6000600360008381526020019081526020016000209050806002015434101561061b57600080fd5b806003013390806001815401808255809150509060018203906000526020600020016000909192909190916101000a81548173ffffffffffffffffffffffffffffffffffffffff021916908373ffffffffffffffffffffffffffffffffffffffff16021790555050348160040160003373ffffffffffffffffffffffffffffffffffffffff1673ffffffffffffffffffffffffffffffffffffffff168152602001908152602001600020819055505050565b6000809054906101000a900473ffffffffffffffffffffffffffffffffffffffff1681565b60025481565b6000811161070557600080fd5b600260008154809291906001019190505550600060036000600254815260200190815260200160002090506002548160000181905550338160010160006101000a81548173ffffffffffffffffffffffffffffffffffffffff021916908373ffffffffffffffffffffffffffffffffffffffff160217905550818160020181905550505056fea265627a7a72315820ccd63da94c1c918f7c46f9392ece32ba937c5844c2d68ea1acc310b1e1573a3764736f6c63430005100032",
  "source": "pragma solidity ^0.5.16;\r\n\r\ncontract SubmarineAuctions {\r\n    address public owner;\r\n    string  public name = 'submarine_auctions';\r\n    uint    public lastId = 1;\r\n    mapping(uint => Auction) auctions;\r\n\r\n\r\n    struct Auction {\r\n        uint id;\r\n        address payable seller;\r\n        uint minBid;\r\n        address payable [] bidders;\r\n        mapping(address => uint) bids;\r\n    }\r\n\r\n    constructor() public {\r\n        owner = msg.sender;\r\n    }\r\n\r\n    function createAuction(uint _minBid) public payable {\r\n\r\n        require(_minBid > 0);\r\n\r\n        lastId ++;\r\n\r\n        Auction storage a = auctions[lastId];\r\n        a.id = lastId;\r\n        a.seller = msg.sender;\r\n        a.minBid = _minBid;\r\n    }\r\n\r\n    function submitBid(uint _auctionID) public payable {\r\n\r\n        Auction storage a = auctions[_auctionID];\r\n\r\n        require(msg.value >= a.minBid);\r\n\r\n        a.bidders.push(msg.sender);\r\n        a.bids[msg.sender] = msg.value;\r\n\r\n    }\r\n\r\n    function resolveAuction(uint _auctionID) public {\r\n\r\n        Auction storage a = auctions[_auctionID];\r\n\r\n        uint _maxBid = 0;\r\n        uint _winnerIndex;\r\n\r\n        //Determine winner\r\n        for(uint i=0; i < a.bidders.length; i++){\r\n            if(a.bids[a.bidders[i]] > _maxBid){\r\n                _maxBid = a.bids[a.bidders[i]];\r\n                _winnerIndex = i;\r\n            }\r\n        }\r\n\r\n        //Pay seller\r\n        a.seller.transfer(_maxBid);\r\n\r\n        //Refund losing bidders\r\n        a.bids[a.bidders[_winnerIndex]] = 0;\r\n        for(uint i=0; i < a.bidders.length; i++){\r\n            a.bidders[i].transfer(a.bids[a.bidders[i]]);\r\n        }\r\n        \r\n        //Send winning bidder the NFT\r\n    }\r\n\r\n}",
  "sourcePath": "C:/Users/billy/OneDrive/Desktop/dev/ethereum/ethereum_auction/src/contracts/SubmarineAuctions.sol",
  "compiler": {
    "name": "solc",
    "version": "0.5.16+commit.9c3226ce.Emscripten.clang"
  },
  "schemaVersion": "3.2.3",
  "updatedAt": "2021-01-08T15:51:46.494Z",
  "networkType": "ethereum",
  "devdoc": {
    "methods": {}
  },
  "userdoc": {
    "methods": {}
  }
}