{
  "contractName": "SubmarineAuctions",
  "abi": [
    {
      "inputs": [],
      "payable": false,
      "stateMutability": "nonpayable",
      "type": "constructor"
    },
    {
      "constant": true,
      "inputs": [
        {
          "internalType": "uint256",
          "name": "",
          "type": "uint256"
        }
      ],
      "name": "auctions",
      "outputs": [
        {
          "internalType": "uint256",
          "name": "id",
          "type": "uint256"
        },
        {
          "internalType": "address payable",
          "name": "seller",
          "type": "address"
        },
        {
          "internalType": "uint256",
          "name": "minBid",
          "type": "uint256"
        },
        {
          "internalType": "uint256",
          "name": "maxBid",
          "type": "uint256"
        },
        {
          "internalType": "uint256",
          "name": "endTime",
          "type": "uint256"
        },
        {
          "internalType": "address",
          "name": "winner",
          "type": "address"
        }
      ],
      "payable": false,
      "stateMutability": "view",
      "type": "function"
    },
    {
      "constant": true,
      "inputs": [],
      "name": "lastId",
      "outputs": [
        {
          "internalType": "uint256",
          "name": "",
          "type": "uint256"
        }
      ],
      "payable": false,
      "stateMutability": "view",
      "type": "function"
    },
    {
      "constant": true,
      "inputs": [],
      "name": "name",
      "outputs": [
        {
          "internalType": "string",
          "name": "",
          "type": "string"
        }
      ],
      "payable": false,
      "stateMutability": "view",
      "type": "function"
    },
    {
      "constant": true,
      "inputs": [],
      "name": "owner",
      "outputs": [
        {
          "internalType": "address",
          "name": "",
          "type": "address"
        }
      ],
      "payable": false,
      "stateMutability": "view",
      "type": "function"
    },
    {
      "constant": false,
      "inputs": [
        {
          "internalType": "uint256",
          "name": "_auctionID",
          "type": "uint256"
        },
        {
          "internalType": "uint256",
          "name": "_index",
          "type": "uint256"
        }
      ],
      "name": "getBidder",
      "outputs": [
        {
          "internalType": "address",
          "name": "",
          "type": "address"
        }
      ],
      "payable": false,
      "stateMutability": "nonpayable",
      "type": "function"
    },
    {
      "constant": false,
      "inputs": [
        {
          "internalType": "uint256",
          "name": "_auctionID",
          "type": "uint256"
        },
        {
          "internalType": "uint256",
          "name": "_index",
          "type": "uint256"
        }
      ],
      "name": "getBid",
      "outputs": [
        {
          "internalType": "uint256",
          "name": "",
          "type": "uint256"
        }
      ],
      "payable": false,
      "stateMutability": "nonpayable",
      "type": "function"
    },
    {
      "constant": false,
      "inputs": [
        {
          "internalType": "uint256",
          "name": "_minBid",
          "type": "uint256"
        },
        {
          "internalType": "uint256",
          "name": "_days",
          "type": "uint256"
        },
        {
          "internalType": "uint256",
          "name": "_hours",
          "type": "uint256"
        },
        {
          "internalType": "uint256",
          "name": "_minutes",
          "type": "uint256"
        }
      ],
      "name": "createAuction",
      "outputs": [],
      "payable": true,
      "stateMutability": "payable",
      "type": "function"
    },
    {
      "constant": false,
      "inputs": [
        {
          "internalType": "uint256",
          "name": "_auctionID",
          "type": "uint256"
        }
      ],
      "name": "submitBid",
      "outputs": [],
      "payable": true,
      "stateMutability": "payable",
      "type": "function"
    },
    {
      "constant": false,
      "inputs": [
        {
          "internalType": "uint256",
          "name": "_auctionID",
          "type": "uint256"
        }
      ],
      "name": "sellerWidthdraw",
      "outputs": [],
      "payable": false,
      "stateMutability": "nonpayable",
      "type": "function"
    },
    {
      "constant": false,
      "inputs": [
        {
          "internalType": "uint256",
          "name": "_auctionID",
          "type": "uint256"
        }
      ],
      "name": "bidderWidthdraw",
      "outputs": [],
      "payable": false,
      "stateMutability": "nonpayable",
      "type": "function"
    }
  ],
  "bytecode": "0x60806040526040518060400160405280601281526020017f7375626d6172696e655f61756374696f6e7300000000000000000000000000008152506001908051906020019061004f9291906100a7565b50600160025534801561006157600080fd5b50336000806101000a81548173ffffffffffffffffffffffffffffffffffffffff021916908373ffffffffffffffffffffffffffffffffffffffff16021790555061014c565b828054600181600116156101000203166002900490600052602060002090601f016020900481019282601f106100e857805160ff1916838001178555610116565b82800160010185558215610116579182015b828111156101155782518255916020019190600101906100fa565b5b5090506101239190610127565b5090565b61014991905b8082111561014557600081600090555060010161012d565b5090565b90565b610a7f8061015b6000396000f3fe6080604052600436106100915760003560e01c806374bdda151161005957806374bdda15146102d05780638da5cb5b146102fe578063c1292cc314610355578063d0dd990814610380578063d8c050181461040557610091565b806306fdde031461009657806324535bcd14610126578063431f21da14610161578063571a26a0146101ad578063582c7ffd14610277575b600080fd5b3480156100a257600080fd5b506100ab610440565b6040518080602001828103825283818151815260200191508051906020019080838360005b838110156100eb5780820151818401526020810190506100d0565b50505050905090810190601f1680156101185780820380516001836020036101000a031916815260200191505b509250505060405180910390f35b34801561013257600080fd5b5061015f6004803603602081101561014957600080fd5b81019080803590602001909291905050506104de565b005b6101ab6004803603608081101561017757600080fd5b81019080803590602001909291908035906020019092919080359060200190929190803590602001909291905050506105c7565b005b3480156101b957600080fd5b506101e6600480360360208110156101d057600080fd5b8101908080359060200190929190505050610682565b604051808781526020018673ffffffffffffffffffffffffffffffffffffffff1673ffffffffffffffffffffffffffffffffffffffff1681526020018581526020018481526020018381526020018273ffffffffffffffffffffffffffffffffffffffff1673ffffffffffffffffffffffffffffffffffffffff168152602001965050505050505060405180910390f35b34801561028357600080fd5b506102ba6004803603604081101561029a57600080fd5b8101908080359060200190929190803590602001909291905050506106fe565b6040518082815260200191505060405180910390f35b6102fc600480360360208110156102e657600080fd5b810190808035906020019092919050505061079a565b005b34801561030a57600080fd5b506103136108b2565b604051808273ffffffffffffffffffffffffffffffffffffffff1673ffffffffffffffffffffffffffffffffffffffff16815260200191505060405180910390f35b34801561036157600080fd5b5061036a6108d7565b6040518082815260200191505060405180910390f35b34801561038c57600080fd5b506103c3600480360360408110156103a357600080fd5b8101908080359060200190929190803590602001909291905050506108dd565b604051808273ffffffffffffffffffffffffffffffffffffffff1673ffffffffffffffffffffffffffffffffffffffff16815260200191505060405180910390f35b34801561041157600080fd5b5061043e6004803603602081101561042857600080fd5b8101908080359060200190929190505050610938565b005b60018054600181600116156101000203166002900480601f0160208091040260200160405190810160405280929190818152602001828054600181600116156101000203166002900480156104d65780601f106104ab576101008083540402835291602001916104d6565b820191906000526020600020905b8154815290600101906020018083116104b957829003601f168201915b505050505081565b6000600360008381526020019081526020016000209050806004015442101561050657600080fd5b8060010160009054906101000a900473ffffffffffffffffffffffffffffffffffffffff1673ffffffffffffffffffffffffffffffffffffffff163373ffffffffffffffffffffffffffffffffffffffff161461056257600080fd5b806002015481600301541015610577576105c3565b3373ffffffffffffffffffffffffffffffffffffffff166108fc82600301549081150290604051600060405180830381858888f193505050501580156105c1573d6000803e3d6000fd5b505b5050565b600084116105d457600080fd5b60026000815480929190600101919050555060006003600060025481526020019081526020016000209050600254816000018190555060008160030181905550338160010160006101000a81548173ffffffffffffffffffffffffffffffffffffffff021916908373ffffffffffffffffffffffffffffffffffffffff160217905550848160020181905550603c8202610e1084026201518086024201010181600401819055505050505050565b60036020528060005260406000206000915090508060000154908060010160009054906101000a900473ffffffffffffffffffffffffffffffffffffffff16908060020154908060030154908060040154908060050160009054906101000a900473ffffffffffffffffffffffffffffffffffffffff16905086565b60008060036000858152602001908152602001600020905080600701600082600601858154811061072b57fe5b9060005260206000200160009054906101000a900473ffffffffffffffffffffffffffffffffffffffff1673ffffffffffffffffffffffffffffffffffffffff1673ffffffffffffffffffffffffffffffffffffffff1681526020019081526020016000205491505092915050565b600060036000838152602001908152602001600020905080600201543410158015610806575060008160070160003373ffffffffffffffffffffffffffffffffffffffff1673ffffffffffffffffffffffffffffffffffffffff16815260200190815260200160002054145b61080f57600080fd5b348160070160003373ffffffffffffffffffffffffffffffffffffffff1673ffffffffffffffffffffffffffffffffffffffff1681526020019081526020016000208190555080600301543411156108ae57348160030181905550338160050160006101000a81548173ffffffffffffffffffffffffffffffffffffffff021916908373ffffffffffffffffffffffffffffffffffffffff1602179055505b5050565b6000809054906101000a900473ffffffffffffffffffffffffffffffffffffffff1681565b60025481565b60008060036000858152602001908152602001600020905080600601838154811061090457fe5b9060005260206000200160009054906101000a900473ffffffffffffffffffffffffffffffffffffffff1691505092915050565b6000600360008381526020019081526020016000209050806004015442101561096057600080fd5b8060050160009054906101000a900473ffffffffffffffffffffffffffffffffffffffff1673ffffffffffffffffffffffffffffffffffffffff163373ffffffffffffffffffffffffffffffffffffffff1614156109bd57610a46565b3373ffffffffffffffffffffffffffffffffffffffff166108fc8260070160003373ffffffffffffffffffffffffffffffffffffffff1673ffffffffffffffffffffffffffffffffffffffff168152602001908152602001600020549081150290604051600060405180830381858888f19350505050158015610a44573d6000803e3d6000fd5b505b505056fea265627a7a72315820023f1fa3ca5baf1299f9ef4e596cfc3929a1128292679132c9878474f53ae48064736f6c63430005100032",
  "source": "pragma solidity ^0.5.16;\r\n\r\ncontract SubmarineAuctions {\r\n    address public owner;\r\n    string  public name = 'submarine_auctions';\r\n    uint    public lastId = 1;\r\n    mapping(uint => Auction) public auctions;\r\n\r\n\r\n    struct Auction {\r\n        uint id;\r\n        address payable seller;\r\n        uint minBid;\r\n        uint maxBid;\r\n        uint endTime;\r\n        address winner;\r\n        address payable [] bidders;\r\n        mapping(address => uint) bids;\r\n    }\r\n\r\n    constructor() public {\r\n        owner = msg.sender;\r\n    }\r\n\r\n    function getBidder(uint _auctionID, uint _index) public returns (address){\r\n        Auction storage a = auctions[_auctionID];\r\n        return (a.bidders[_index]);\r\n    }\r\n\r\n    function getBid(uint _auctionID, uint _index) public returns (uint){\r\n        Auction storage a = auctions[_auctionID];\r\n        return (a.bids[a.bidders[_index]]);\r\n    }\r\n\r\n    function createAuction(uint _minBid, uint _days,  uint _hours, uint _minutes) public payable {\r\n\r\n        require(_minBid > 0);\r\n\r\n        lastId ++;\r\n\r\n        Auction storage a = auctions[lastId];\r\n        a.id = lastId;\r\n        a.maxBid = 0;\r\n        a.seller = msg.sender;\r\n        a.minBid = _minBid;\r\n        a.endTime = now + ( _days * 1 days) + ( _hours * 1 hours) + ( _minutes * 1 minutes);\r\n    }\r\n\r\n    function submitBid(uint _auctionID) public payable {\r\n\r\n        Auction storage a = auctions[_auctionID];\r\n\r\n        // Only 1 bid per address allowed\r\n        require(msg.value >= a.minBid && a.bids[msg.sender] == 0);\r\n\r\n        a.bids[msg.sender] = msg.value;\r\n\r\n        if(msg.value > a.maxBid){\r\n            a.maxBid = msg.value;\r\n            a.winner = msg.sender;\r\n        }\r\n\r\n    }\r\n\r\n    function sellerWidthdraw(uint _auctionID) public {\r\n        Auction storage a = auctions[_auctionID];\r\n        require(now >= a.endTime);\r\n        require(msg.sender == a.seller);\r\n\r\n        if(a.maxBid < a.minBid){\r\n            // Transfer NFT back to owner\r\n        } else {\r\n            msg.sender.transfer(a.maxBid);  \r\n        }\r\n        \r\n    }\r\n\r\n    function bidderWidthdraw(uint _auctionID) public {\r\n        \r\n        Auction storage a = auctions[_auctionID];\r\n        \r\n        require(now >= a.endTime);\r\n\r\n        if(msg.sender == a.winner){\r\n\r\n            // Send winner the NFT;\r\n\r\n        } else {\r\n            msg.sender.transfer(a.bids[msg.sender]);\r\n        }\r\n    }\r\n\r\n}",
  "sourcePath": "C:/Users/billy/OneDrive/Desktop/dev/ethereum/ethereum_auction/src/contracts/SubmarineAuctions.sol",
  "compiler": {
    "name": "solc",
    "version": "0.5.16+commit.9c3226ce.Emscripten.clang"
  },
  "schemaVersion": "3.2.3",
  "updatedAt": "2021-01-09T13:22:05.976Z",
  "devdoc": {
    "methods": {}
  },
  "userdoc": {
    "methods": {}
  }
}