{
  "contractName": "SubmarineAuctions",
  "abi": [
    {
      "inputs": [],
      "payable": false,
      "stateMutability": "nonpayable",
      "type": "constructor"
    },
    {
      "anonymous": false,
      "inputs": [
        {
          "indexed": false,
          "internalType": "uint256",
          "name": "auctionID",
          "type": "uint256"
        },
        {
          "indexed": false,
          "internalType": "address",
          "name": "bidder",
          "type": "address"
        },
        {
          "indexed": false,
          "internalType": "uint256",
          "name": "bidAmount",
          "type": "uint256"
        }
      ],
      "name": "BidMade",
      "type": "event"
    },
    {
      "constant": true,
      "inputs": [
        {
          "internalType": "uint256",
          "name": "",
          "type": "uint256"
        }
      ],
      "name": "activeAuctions",
      "outputs": [
        {
          "internalType": "uint256",
          "name": "id",
          "type": "uint256"
        },
        {
          "internalType": "address",
          "name": "seller",
          "type": "address"
        },
        {
          "internalType": "uint256",
          "name": "minBid",
          "type": "uint256"
        },
        {
          "internalType": "uint256",
          "name": "bidSize",
          "type": "uint256"
        }
      ],
      "payable": false,
      "stateMutability": "view",
      "type": "function"
    },
    {
      "constant": true,
      "inputs": [],
      "name": "lastId",
      "outputs": [
        {
          "internalType": "uint256",
          "name": "",
          "type": "uint256"
        }
      ],
      "payable": false,
      "stateMutability": "view",
      "type": "function"
    },
    {
      "constant": true,
      "inputs": [],
      "name": "name",
      "outputs": [
        {
          "internalType": "string",
          "name": "",
          "type": "string"
        }
      ],
      "payable": false,
      "stateMutability": "view",
      "type": "function"
    },
    {
      "constant": true,
      "inputs": [],
      "name": "owner",
      "outputs": [
        {
          "internalType": "address",
          "name": "",
          "type": "address"
        }
      ],
      "payable": false,
      "stateMutability": "view",
      "type": "function"
    },
    {
      "constant": false,
      "inputs": [
        {
          "internalType": "uint256",
          "name": "_minBid",
          "type": "uint256"
        }
      ],
      "name": "createAuction",
      "outputs": [],
      "payable": true,
      "stateMutability": "payable",
      "type": "function"
    },
    {
      "constant": false,
      "inputs": [
        {
          "internalType": "uint256",
          "name": "_auctionID",
          "type": "uint256"
        }
      ],
      "name": "submitBid",
      "outputs": [],
      "payable": true,
      "stateMutability": "payable",
      "type": "function"
    }
  ],
  "bytecode": "0x60806040526040518060400160405280601281526020017f7375626d6172696e655f61756374696f6e7300000000000000000000000000008152506001908051906020019061004f9291906100a7565b50600160025534801561006157600080fd5b50336000806101000a81548173ffffffffffffffffffffffffffffffffffffffff021916908373ffffffffffffffffffffffffffffffffffffffff16021790555061014c565b828054600181600116156101000203166002900490600052602060002090601f016020900481019282601f106100e857805160ff1916838001178555610116565b82800160010185558215610116579182015b828111156101155782518255916020019190600101906100fa565b5b5090506101239190610127565b5090565b61014991905b8082111561014557600081600090555060010161012d565b5090565b90565b61066a8061015b6000396000f3fe6080604052600436106100555760003560e01c806306fdde031461005a57806374bdda15146100ea578063790d8596146101185780638da5cb5b146101a8578063c1292cc3146101ff578063d5563f311461022a575b600080fd5b34801561006657600080fd5b5061006f610258565b6040518080602001828103825283818151815260200191508051906020019080838360005b838110156100af578082015181840152602081019050610094565b50505050905090810190601f1680156100dc5780820380516001836020036101000a031916815260200191505b509250505060405180910390f35b6101166004803603602081101561010057600080fd5b81019080803590602001909291905050506102f6565b005b34801561012457600080fd5b506101516004803603602081101561013b57600080fd5b8101908080359060200190929190505050610467565b604051808581526020018473ffffffffffffffffffffffffffffffffffffffff1673ffffffffffffffffffffffffffffffffffffffff16815260200183815260200182815260200194505050505060405180910390f35b3480156101b457600080fd5b506101bd6104b7565b604051808273ffffffffffffffffffffffffffffffffffffffff1673ffffffffffffffffffffffffffffffffffffffff16815260200191505060405180910390f35b34801561020b57600080fd5b506102146104dc565b6040518082815260200191505060405180910390f35b6102566004803603602081101561024057600080fd5b81019080803590602001909291905050506104e2565b005b60018054600181600116156101000203166002900480601f0160208091040260200160405190810160405280929190818152602001828054600181600116156101000203166002900480156102ee5780601f106102c3576101008083540402835291602001916102ee565b820191906000526020600020905b8154815290600101906020018083116102d157829003601f168201915b505050505081565b6000341161030357600080fd5b61030b6105c7565b60405180604001604052803373ffffffffffffffffffffffffffffffffffffffff168152602001348152509050806003600084815260200190815260200160002060040160006003600086815260200190815260200160002060030154815260200190815260200160002060008201518160000160006101000a81548173ffffffffffffffffffffffffffffffffffffffff021916908373ffffffffffffffffffffffffffffffffffffffff1602179055506020820151816001015590505060036000838152602001908152602001600020600301600081548092919060010191905055507f1deb95696ada9b84bb35fed5fed94d6f185f9b547732b7e1b48df32597b5dfba823334604051808481526020018373ffffffffffffffffffffffffffffffffffffffff1673ffffffffffffffffffffffffffffffffffffffff168152602001828152602001935050505060405180910390a15050565b60036020528060005260406000206000915090508060000154908060010160009054906101000a900473ffffffffffffffffffffffffffffffffffffffff16908060020154908060030154905084565b6000809054906101000a900473ffffffffffffffffffffffffffffffffffffffff1681565b60025481565b600081116104ef57600080fd5b6002600081548092919060010191905055506105096105f7565b604051806080016040528060025481526020013373ffffffffffffffffffffffffffffffffffffffff16815260200183815260200160008152509050806003600060025481526020019081526020016000206000820151816000015560208201518160010160006101000a81548173ffffffffffffffffffffffffffffffffffffffff021916908373ffffffffffffffffffffffffffffffffffffffff16021790555060408201518160020155606082015181600301559050505050565b6040518060400160405280600073ffffffffffffffffffffffffffffffffffffffff168152602001600081525090565b604051806080016040528060008152602001600073ffffffffffffffffffffffffffffffffffffffff1681526020016000815260200160008152509056fea265627a7a72315820a0af025a31a273aad86229524b7920d1626646b7d0093fc146d621dcccf7b43964736f6c63430005100032",
  "source": "pragma solidity ^0.5.16;\r\n\r\ncontract SubmarineAuctions {\r\n    address public owner;\r\n    string  public name = 'submarine_auctions';\r\n    uint    public lastId = 1;\r\n    mapping(uint => Auction) public activeAuctions;\r\n\r\n    struct Bid {\r\n        address bidder;\r\n        uint    amount;\r\n    }\r\n\r\n    struct Auction {\r\n        uint  id;\r\n        address seller;\r\n        uint minBid;\r\n        uint bidSize;\r\n        mapping(uint => Bid) bids;\r\n    }\r\n\r\n    event BidMade (\r\n        uint auctionID,\r\n        address bidder,\r\n        uint bidAmount\r\n    );\r\n\r\n\r\n    constructor() public {\r\n        owner = msg.sender;\r\n    }\r\n\r\n    function createAuction(uint _minBid) public payable {\r\n\r\n        require(_minBid > 0);\r\n\r\n        lastId ++;\r\n\r\n        Auction memory newAuction = Auction({\r\n            id : lastId,\r\n            minBid : _minBid,\r\n            seller : msg.sender,\r\n            bidSize : 0 \r\n        });\r\n\r\n        activeAuctions[lastId] = newAuction;\r\n    }\r\n\r\n    function submitBid(uint _auctionID) public payable {\r\n\r\n        require(msg.value > 0);\r\n\r\n        Bid memory bid = Bid({\r\n            bidder : msg.sender,\r\n            amount : msg.value\r\n        });\r\n\r\n        activeAuctions[_auctionID].bids[ activeAuctions[_auctionID].bidSize ] = bid;\r\n        activeAuctions[_auctionID].bidSize ++;\r\n\r\n        emit BidMade(_auctionID, msg.sender, msg.value);\r\n    }\r\n\r\n    function resolveAuction(uint _auctionID) internal {\r\n        // winner to auctions[_auctionID].bids.max().bidder\r\n\r\n        // Transfer NFT to bidder\r\n\r\n        // Transfer highest bid to owner\r\n\r\n        // Remove auction from active auctions array\r\n\r\n        // Pay back everyone else - How to do this without awful gas fees?? lol\r\n    }\r\n\r\n}",
  "sourcePath": "C:/Users/billy/OneDrive/Desktop/dev/ethereum/ethereum_auction/src/contracts/SubmarineAuctions.sol",
  "compiler": {
    "name": "solc",
    "version": "0.5.16+commit.9c3226ce.Emscripten.clang"
  },
  "schemaVersion": "3.2.3",
  "updatedAt": "2021-01-07T16:48:14.134Z",
  "networkType": "ethereum",
  "devdoc": {
    "methods": {}
  },
  "userdoc": {
    "methods": {}
  }
}