{
  "contractName": "SubmarineAuctions",
  "abi": [
    {
      "inputs": [],
      "stateMutability": "nonpayable",
      "type": "constructor"
    },
    {
      "inputs": [
        {
          "internalType": "uint256",
          "name": "",
          "type": "uint256"
        }
      ],
      "name": "auctions",
      "outputs": [
        {
          "internalType": "uint256",
          "name": "id",
          "type": "uint256"
        },
        {
          "internalType": "address payable",
          "name": "seller",
          "type": "address"
        },
        {
          "internalType": "uint256",
          "name": "minBid",
          "type": "uint256"
        },
        {
          "internalType": "uint256",
          "name": "maxBid",
          "type": "uint256"
        },
        {
          "internalType": "uint256",
          "name": "endTime",
          "type": "uint256"
        },
        {
          "internalType": "address",
          "name": "winner",
          "type": "address"
        }
      ],
      "stateMutability": "view",
      "type": "function",
      "constant": true
    },
    {
      "inputs": [],
      "name": "lastId",
      "outputs": [
        {
          "internalType": "uint256",
          "name": "",
          "type": "uint256"
        }
      ],
      "stateMutability": "view",
      "type": "function",
      "constant": true
    },
    {
      "inputs": [],
      "name": "name",
      "outputs": [
        {
          "internalType": "string",
          "name": "",
          "type": "string"
        }
      ],
      "stateMutability": "view",
      "type": "function",
      "constant": true
    },
    {
      "inputs": [],
      "name": "owner",
      "outputs": [
        {
          "internalType": "address",
          "name": "",
          "type": "address"
        }
      ],
      "stateMutability": "view",
      "type": "function",
      "constant": true
    },
    {
      "inputs": [
        {
          "internalType": "uint256",
          "name": "_auctionID",
          "type": "uint256"
        },
        {
          "internalType": "uint256",
          "name": "_index",
          "type": "uint256"
        }
      ],
      "name": "getBidder",
      "outputs": [
        {
          "internalType": "address",
          "name": "",
          "type": "address"
        }
      ],
      "stateMutability": "nonpayable",
      "type": "function"
    },
    {
      "inputs": [
        {
          "internalType": "uint256",
          "name": "_auctionID",
          "type": "uint256"
        },
        {
          "internalType": "uint256",
          "name": "_index",
          "type": "uint256"
        }
      ],
      "name": "getBid",
      "outputs": [
        {
          "internalType": "uint256",
          "name": "",
          "type": "uint256"
        }
      ],
      "stateMutability": "nonpayable",
      "type": "function"
    },
    {
      "inputs": [
        {
          "internalType": "uint256",
          "name": "_minBid",
          "type": "uint256"
        },
        {
          "internalType": "uint256",
          "name": "_days",
          "type": "uint256"
        },
        {
          "internalType": "uint256",
          "name": "_hours",
          "type": "uint256"
        },
        {
          "internalType": "uint256",
          "name": "_minutes",
          "type": "uint256"
        }
      ],
      "name": "createAuction",
      "outputs": [],
      "stateMutability": "payable",
      "type": "function",
      "payable": true
    },
    {
      "inputs": [
        {
          "internalType": "uint256",
          "name": "_auctionID",
          "type": "uint256"
        }
      ],
      "name": "submitBid",
      "outputs": [],
      "stateMutability": "payable",
      "type": "function",
      "payable": true
    },
    {
      "inputs": [
        {
          "internalType": "uint256",
          "name": "_auctionID",
          "type": "uint256"
        }
      ],
      "name": "sellerWithdraw",
      "outputs": [],
      "stateMutability": "nonpayable",
      "type": "function"
    },
    {
      "inputs": [
        {
          "internalType": "uint256",
          "name": "_auctionID",
          "type": "uint256"
        }
      ],
      "name": "bidderWithdraw",
      "outputs": [],
      "stateMutability": "nonpayable",
      "type": "function"
    }
  ],
  "bytecode": "0x60806040526040518060400160405280601281526020017f7375626d6172696e655f61756374696f6e7300000000000000000000000000008152506001908051906020019061004f9291906100a7565b50600160025534801561006157600080fd5b50336000806101000a81548173ffffffffffffffffffffffffffffffffffffffff021916908373ffffffffffffffffffffffffffffffffffffffff160217905550610144565b828054600181600116156101000203166002900490600052602060002090601f016020900481019282601f106100e857805160ff1916838001178555610116565b82800160010185558215610116579182015b828111156101155782518255916020019190600101906100fa565b5b5090506101239190610127565b5090565b5b80821115610140576000816000905550600101610128565b5090565b610a4e806101536000396000f3fe6080604052600436106100915760003560e01c806374bdda151161005957806374bdda15146102a4578063864ae8cd146102d25780638da5cb5b1461030d578063c1292cc31461034e578063d0dd99081461037957610091565b806306fdde0314610096578063431f21da14610126578063571a26a014610172578063582c7ffd146102105780636ecb111914610269575b600080fd5b3480156100a257600080fd5b506100ab6103e8565b6040518080602001828103825283818151815260200191508051906020019080838360005b838110156100eb5780820151818401526020810190506100d0565b50505050905090810190601f1680156101185780820380516001836020036101000a031916815260200191505b509250505060405180910390f35b6101706004803603608081101561013c57600080fd5b8101908080359060200190929190803590602001909291908035906020019092919080359060200190929190505050610486565b005b34801561017e57600080fd5b506101ab6004803603602081101561019557600080fd5b8101908080359060200190929190505050610541565b604051808781526020018673ffffffffffffffffffffffffffffffffffffffff1681526020018581526020018481526020018381526020018273ffffffffffffffffffffffffffffffffffffffff168152602001965050505050505060405180910390f35b34801561021c57600080fd5b506102536004803603604081101561023357600080fd5b8101908080359060200190929190803590602001909291905050506105bd565b6040518082815260200191505060405180910390f35b34801561027557600080fd5b506102a26004803603602081101561028c57600080fd5b8101908080359060200190929190505050610659565b005b6102d0600480360360208110156102ba57600080fd5b8101908080359060200190929190505050610776565b005b3480156102de57600080fd5b5061030b600480360360208110156102f557600080fd5b81019080803590602001909291905050506108aa565b005b34801561031957600080fd5b50610322610993565b604051808273ffffffffffffffffffffffffffffffffffffffff16815260200191505060405180910390f35b34801561035a57600080fd5b506103636109b7565b6040518082815260200191505060405180910390f35b34801561038557600080fd5b506103bc6004803603604081101561039c57600080fd5b8101908080359060200190929190803590602001909291905050506109bd565b604051808273ffffffffffffffffffffffffffffffffffffffff16815260200191505060405180910390f35b60018054600181600116156101000203166002900480601f01602080910402602001604051908101604052809291908181526020018280546001816001161561010002031660029004801561047e5780601f106104535761010080835404028352916020019161047e565b820191906000526020600020905b81548152906001019060200180831161046157829003601f168201915b505050505081565b6000841161049357600080fd5b60026000815480929190600101919050555060006003600060025481526020019081526020016000209050600254816000018190555060008160030181905550338160010160006101000a81548173ffffffffffffffffffffffffffffffffffffffff021916908373ffffffffffffffffffffffffffffffffffffffff160217905550848160020181905550603c8202610e1084026201518086024201010181600401819055505050505050565b60036020528060005260406000206000915090508060000154908060010160009054906101000a900473ffffffffffffffffffffffffffffffffffffffff16908060020154908060030154908060040154908060050160009054906101000a900473ffffffffffffffffffffffffffffffffffffffff16905086565b6000806003600085815260200190815260200160002090508060070160008260060185815481106105ea57fe5b9060005260206000200160009054906101000a900473ffffffffffffffffffffffffffffffffffffffff1673ffffffffffffffffffffffffffffffffffffffff1673ffffffffffffffffffffffffffffffffffffffff1681526020019081526020016000205491505092915050565b6000600360008381526020019081526020016000209050806004015442101561068157600080fd5b8060050160009054906101000a900473ffffffffffffffffffffffffffffffffffffffff1673ffffffffffffffffffffffffffffffffffffffff163373ffffffffffffffffffffffffffffffffffffffff1614156106e95760006106e457600080fd5b610772565b3373ffffffffffffffffffffffffffffffffffffffff166108fc8260070160003373ffffffffffffffffffffffffffffffffffffffff1673ffffffffffffffffffffffffffffffffffffffff168152602001908152602001600020549081150290604051600060405180830381858888f19350505050158015610770573d6000803e3d6000fd5b505b5050565b60006003600083815260200190815260200160002090508060020154341015610807576040517f08c379a000000000000000000000000000000000000000000000000000000000815260040180806020018281038252601d8152602001807f7375626d69744269642072657175697265206973206661696c696e672100000081525060200191505060405180910390fd5b348160070160003373ffffffffffffffffffffffffffffffffffffffff1673ffffffffffffffffffffffffffffffffffffffff1681526020019081526020016000208190555080600301543411156108a657348160030181905550338160050160006101000a81548173ffffffffffffffffffffffffffffffffffffffff021916908373ffffffffffffffffffffffffffffffffffffffff1602179055505b5050565b600060036000838152602001908152602001600020905080600401544210156108d257600080fd5b8060010160009054906101000a900473ffffffffffffffffffffffffffffffffffffffff1673ffffffffffffffffffffffffffffffffffffffff163373ffffffffffffffffffffffffffffffffffffffff161461092e57600080fd5b8060020154816003015410156109435761098f565b3373ffffffffffffffffffffffffffffffffffffffff166108fc82600301549081150290604051600060405180830381858888f1935050505015801561098d573d6000803e3d6000fd5b505b5050565b60008054906101000a900473ffffffffffffffffffffffffffffffffffffffff1681565b60025481565b6000806003600085815260200190815260200160002090508060060183815481106109e457fe5b9060005260206000200160009054906101000a900473ffffffffffffffffffffffffffffffffffffffff169150509291505056fea264697066735822122019c9c11b7ffcb39fdbfe44c4480fecf1cd6359a06f33ccb664df2fefb860dbb264736f6c634300060c0033",
  "immutableReferences": {},
  "source": "pragma solidity ^0.6.0;\r\n\r\ncontract SubmarineAuctions {\r\n    address public owner;\r\n    string  public name = 'submarine_auctions';\r\n    uint    public lastId = 1;\r\n    mapping(uint => Auction) public auctions;\r\n\r\n\r\n    struct Auction {\r\n        uint id;\r\n        address payable seller;\r\n        uint minBid;\r\n        uint maxBid;\r\n        uint endTime;\r\n        address winner;\r\n        address payable [] bidders;\r\n        mapping(address => uint) bids;\r\n    }\r\n\r\n    constructor() public {\r\n        owner = msg.sender;\r\n    }\r\n\r\n    function getBidder(uint _auctionID, uint _index) public returns (address){\r\n        Auction storage a = auctions[_auctionID];\r\n        return (a.bidders[_index]);\r\n    }\r\n\r\n    function getBid(uint _auctionID, uint _index) public returns (uint){\r\n        Auction storage a = auctions[_auctionID];\r\n        return (a.bids[a.bidders[_index]]);\r\n    }\r\n\r\n    function createAuction(uint _minBid, uint _days,  uint _hours, uint _minutes) public payable {\r\n\r\n        require(_minBid > 0);\r\n\r\n        lastId ++;\r\n\r\n        Auction storage a = auctions[lastId];\r\n        a.id = lastId;\r\n        a.maxBid = 0;\r\n        a.seller = msg.sender;\r\n        a.minBid = _minBid;\r\n        a.endTime = now + ( _days * 1 days) + ( _hours * 1 hours) + ( _minutes * 1 minutes);\r\n    }\r\n\r\n    function submitBid(uint _auctionID) public payable {\r\n\r\n        Auction storage a = auctions[_auctionID];\r\n\r\n        // Only 1 bid per address allowed\r\n        require(msg.value >= a.minBid, 'submitBid require is failing!');\r\n\r\n        a.bids[msg.sender] = msg.value;\r\n\r\n        if(msg.value > a.maxBid){\r\n            a.maxBid = msg.value;\r\n            a.winner = msg.sender;\r\n        }\r\n\r\n    }\r\n\r\n    function sellerWithdraw(uint _auctionID) public {\r\n        Auction storage a = auctions[_auctionID];\r\n        require(now >= a.endTime);\r\n        require(msg.sender == a.seller);\r\n\r\n        if(a.maxBid < a.minBid){\r\n            // Transfer NFT back to owner\r\n        } else {\r\n            msg.sender.transfer(a.maxBid);  \r\n        }\r\n        \r\n    }\r\n\r\n    function bidderWithdraw(uint _auctionID) public {\r\n        \r\n        Auction storage a = auctions[_auctionID];\r\n        \r\n        require(now >= a.endTime);\r\n\r\n        if(msg.sender == a.winner){\r\n\r\n            require(false);\r\n\r\n        } else {\r\n            msg.sender.transfer(a.bids[msg.sender]);\r\n        }\r\n    }\r\n\r\n}",
  "sourcePath": "C:/Users/billy/OneDrive/Desktop/dev/ethereum/ethereum_auction/src/contracts/SubmarineAuctions.sol",
  "compiler": {
    "name": "solc",
    "version": "0.6.12+commit.27d51765.Emscripten.clang"
  },
  "schemaVersion": "3.3.3",
  "updatedAt": "2021-01-09T20:05:43.842Z",
  "networkType": "ethereum",
  "devdoc": {
    "kind": "dev",
    "methods": {},
    "version": 1
  },
  "userdoc": {
    "kind": "user",
    "methods": {},
    "version": 1
  }
}